{
    "_format": "hh-sol-artifact-1",
    "contractName": "RollingMultiplier",
    "sourceName": "contracts/RollingMultiplier.sol",
    "abi": [
        {
            "inputs": [
                {
                    "internalType": "uint256",
                    "name": "subscriptionId",
                    "type": "uint256"
                },
                {
                    "internalType": "address",
                    "name": "_vrfCoordinator",
                    "type": "address"
                },
                {
                    "internalType": "bytes32",
                    "name": "_keyHash",
                    "type": "bytes32"
                }
            ],
            "stateMutability": "nonpayable",
            "type": "constructor"
        },
        {
            "inputs": [
                {
                    "internalType": "address",
                    "name": "have",
                    "type": "address"
                },
                {
                    "internalType": "address",
                    "name": "want",
                    "type": "address"
                }
            ],
            "name": "OnlyCoordinatorCanFulfill",
            "type": "error"
        },
        {
            "inputs": [
                {
                    "internalType": "address",
                    "name": "have",
                    "type": "address"
                },
                {
                    "internalType": "address",
                    "name": "owner",
                    "type": "address"
                },
                {
                    "internalType": "address",
                    "name": "coordinator",
                    "type": "address"
                }
            ],
            "name": "OnlyOwnerOrCoordinator",
            "type": "error"
        },
        {
            "inputs": [],
            "name": "ZeroAddress",
            "type": "error"
        },
        {
            "anonymous": false,
            "inputs": [
                {
                    "indexed": false,
                    "internalType": "address",
                    "name": "vrfCoordinator",
                    "type": "address"
                }
            ],
            "name": "CoordinatorSet",
            "type": "event"
        },
        {
            "anonymous": false,
            "inputs": [
                {
                    "indexed": true,
                    "internalType": "address",
                    "name": "from",
                    "type": "address"
                },
                {
                    "indexed": true,
                    "internalType": "address",
                    "name": "to",
                    "type": "address"
                }
            ],
            "name": "OwnershipTransferRequested",
            "type": "event"
        },
        {
            "anonymous": false,
            "inputs": [
                {
                    "indexed": true,
                    "internalType": "address",
                    "name": "from",
                    "type": "address"
                },
                {
                    "indexed": true,
                    "internalType": "address",
                    "name": "to",
                    "type": "address"
                }
            ],
            "name": "OwnershipTransferred",
            "type": "event"
        },
        {
            "anonymous": false,
            "inputs": [
                {
                    "indexed": false,
                    "internalType": "uint256",
                    "name": "requestId",
                    "type": "uint256"
                },
                {
                    "indexed": false,
                    "internalType": "uint256[]",
                    "name": "randomWords",
                    "type": "uint256[]"
                }
            ],
            "name": "RequestFulfilled",
            "type": "event"
        },
        {
            "anonymous": false,
            "inputs": [
                {
                    "indexed": false,
                    "internalType": "uint256",
                    "name": "requestId",
                    "type": "uint256"
                },
                {
                    "indexed": false,
                    "internalType": "uint32",
                    "name": "numWords",
                    "type": "uint32"
                }
            ],
            "name": "RequestSent",
            "type": "event"
        },
        {
            "inputs": [],
            "name": "acceptOwnership",
            "outputs": [],
            "stateMutability": "nonpayable",
            "type": "function"
        },
        {
            "inputs": [],
            "name": "callbackGasLimit",
            "outputs": [
                {
                    "internalType": "uint32",
                    "name": "",
                    "type": "uint32"
                }
            ],
            "stateMutability": "view",
            "type": "function"
        },
        {
            "inputs": [
                {
                    "internalType": "uint256",
                    "name": "_requestId",
                    "type": "uint256"
                }
            ],
            "name": "getRequestStatus",
            "outputs": [
                {
                    "internalType": "bool",
                    "name": "fulfilled",
                    "type": "bool"
                },
                {
                    "internalType": "uint256[]",
                    "name": "randomWords",
                    "type": "uint256[]"
                }
            ],
            "stateMutability": "view",
            "type": "function"
        },
        {
            "inputs": [],
            "name": "keyHash",
            "outputs": [
                {
                    "internalType": "bytes32",
                    "name": "",
                    "type": "bytes32"
                }
            ],
            "stateMutability": "view",
            "type": "function"
        },
        {
            "inputs": [],
            "name": "lastRequestId",
            "outputs": [
                {
                    "internalType": "uint256",
                    "name": "",
                    "type": "uint256"
                }
            ],
            "stateMutability": "view",
            "type": "function"
        },
        {
            "inputs": [],
            "name": "owner",
            "outputs": [
                {
                    "internalType": "address",
                    "name": "",
                    "type": "address"
                }
            ],
            "stateMutability": "view",
            "type": "function"
        },
        {
            "inputs": [
                {
                    "internalType": "uint256",
                    "name": "requestId",
                    "type": "uint256"
                },
                {
                    "internalType": "uint256[]",
                    "name": "randomWords",
                    "type": "uint256[]"
                }
            ],
            "name": "rawFulfillRandomWords",
            "outputs": [],
            "stateMutability": "nonpayable",
            "type": "function"
        },
        {
            "inputs": [],
            "name": "requestConfirmations",
            "outputs": [
                {
                    "internalType": "uint16",
                    "name": "",
                    "type": "uint16"
                }
            ],
            "stateMutability": "view",
            "type": "function"
        },
        {
            "inputs": [
                {
                    "internalType": "uint256",
                    "name": "",
                    "type": "uint256"
                }
            ],
            "name": "requestIds",
            "outputs": [
                {
                    "internalType": "uint256",
                    "name": "",
                    "type": "uint256"
                }
            ],
            "stateMutability": "view",
            "type": "function"
        },
        {
            "inputs": [
                {
                    "internalType": "bool",
                    "name": "enableNativePayment",
                    "type": "bool"
                }
            ],
            "name": "requestRandomWords",
            "outputs": [
                {
                    "internalType": "uint256",
                    "name": "requestId",
                    "type": "uint256"
                }
            ],
            "stateMutability": "nonpayable",
            "type": "function"
        },
        {
            "inputs": [
                {
                    "internalType": "uint256",
                    "name": "",
                    "type": "uint256"
                }
            ],
            "name": "s_multiplier",
            "outputs": [
                {
                    "internalType": "uint256",
                    "name": "",
                    "type": "uint256"
                }
            ],
            "stateMutability": "view",
            "type": "function"
        },
        {
            "inputs": [
                {
                    "internalType": "uint256",
                    "name": "",
                    "type": "uint256"
                }
            ],
            "name": "s_requests",
            "outputs": [
                {
                    "internalType": "bool",
                    "name": "fulfilled",
                    "type": "bool"
                },
                {
                    "internalType": "bool",
                    "name": "exists",
                    "type": "bool"
                }
            ],
            "stateMutability": "view",
            "type": "function"
        },
        {
            "inputs": [],
            "name": "s_subscriptionId",
            "outputs": [
                {
                    "internalType": "uint256",
                    "name": "",
                    "type": "uint256"
                }
            ],
            "stateMutability": "view",
            "type": "function"
        },
        {
            "inputs": [],
            "name": "s_vrfCoordinator",
            "outputs": [
                {
                    "internalType": "contract IVRFCoordinatorV2Plus",
                    "name": "",
                    "type": "address"
                }
            ],
            "stateMutability": "view",
            "type": "function"
        },
        {
            "inputs": [
                {
                    "internalType": "address",
                    "name": "_vrfCoordinator",
                    "type": "address"
                }
            ],
            "name": "setCoordinator",
            "outputs": [],
            "stateMutability": "nonpayable",
            "type": "function"
        },
        {
            "inputs": [
                {
                    "internalType": "uint256",
                    "name": "requestId",
                    "type": "uint256"
                },
                {
                    "internalType": "uint256",
                    "name": "multiplier",
                    "type": "uint256"
                }
            ],
            "name": "testSetRequestAndMultiplier",
            "outputs": [],
            "stateMutability": "nonpayable",
            "type": "function"
        },
        {
            "inputs": [
                {
                    "internalType": "address",
                    "name": "to",
                    "type": "address"
                }
            ],
            "name": "transferOwnership",
            "outputs": [],
            "stateMutability": "nonpayable",
            "type": "function"
        },
        {
            "inputs": [],
            "name": "vrfCoordinator",
            "outputs": [
                {
                    "internalType": "address",
                    "name": "",
                    "type": "address"
                }
            ],
            "stateMutability": "view",
            "type": "function"
        }
    ],
    "bytecode": "0x6080604052620186a0600960146101000a81548163ffffffff021916908363ffffffff1602179055506003600960186101000a81548161ffff021916908361ffff16021790555060016009601a6101000a81548163ffffffff021916908363ffffffff16021790555034801561007457600080fd5b506040516122f23803806122f28339818101604052810190610096919061048a565b81338060008073ffffffffffffffffffffffffffffffffffffffff168273ffffffffffffffffffffffffffffffffffffffff1603610109576040517f08c379a00000000000000000000000000000000000000000000000000000000081526004016101009061053a565b60405180910390fd5b816000806101000a81548173ffffffffffffffffffffffffffffffffffffffff021916908373ffffffffffffffffffffffffffffffffffffffff160217905550600073ffffffffffffffffffffffffffffffffffffffff168173ffffffffffffffffffffffffffffffffffffffff161461018d5761018c8161028f60201b60201c565b5b505050600073ffffffffffffffffffffffffffffffffffffffff168173ffffffffffffffffffffffffffffffffffffffff16036101f6576040517fd92e233d00000000000000000000000000000000000000000000000000000000815260040160405180910390fd5b80600260006101000a81548173ffffffffffffffffffffffffffffffffffffffff021916908373ffffffffffffffffffffffffffffffffffffffff16021790555050826005819055508060088190555081600960006101000a81548173ffffffffffffffffffffffffffffffffffffffff021916908373ffffffffffffffffffffffffffffffffffffffff1602179055505050506105c6565b3373ffffffffffffffffffffffffffffffffffffffff168173ffffffffffffffffffffffffffffffffffffffff16036102fd576040517f08c379a00000000000000000000000000000000000000000000000000000000081526004016102f4906105a6565b60405180910390fd5b80600160006101000a81548173ffffffffffffffffffffffffffffffffffffffff021916908373ffffffffffffffffffffffffffffffffffffffff1602179055508073ffffffffffffffffffffffffffffffffffffffff1660008054906101000a900473ffffffffffffffffffffffffffffffffffffffff1673ffffffffffffffffffffffffffffffffffffffff167fed8889f560326eb138920d842192f0eb3dd22b4f139c87a2c57538e05bae127860405160405180910390a350565b600080fd5b6000819050919050565b6103d3816103c0565b81146103de57600080fd5b50565b6000815190506103f0816103ca565b92915050565b600073ffffffffffffffffffffffffffffffffffffffff82169050919050565b6000610421826103f6565b9050919050565b61043181610416565b811461043c57600080fd5b50565b60008151905061044e81610428565b92915050565b6000819050919050565b61046781610454565b811461047257600080fd5b50565b6000815190506104848161045e565b92915050565b6000806000606084860312156104a3576104a26103bb565b5b60006104b1868287016103e1565b93505060206104c28682870161043f565b92505060406104d386828701610475565b9150509250925092565b600082825260208201905092915050565b7f43616e6e6f7420736574206f776e657220746f207a65726f0000000000000000600082015250565b60006105246018836104dd565b915061052f826104ee565b602082019050919050565b6000602082019050818103600083015261055381610517565b9050919050565b7f43616e6e6f74207472616e7366657220746f2073656c66000000000000000000600082015250565b60006105906017836104dd565b915061059b8261055a565b602082019050919050565b600060208201905081810360008301526105bf81610583565b9050919050565b611d1d806105d56000396000f3fe608060405234801561001057600080fd5b50600436106101165760003560e01c80639eccacf6116100a2578063b0fb162f11610071578063b0fb162f146102be578063bebd8259146102dc578063d8a4676f1461030c578063f2fde38b1461033d578063fc2a88c31461035957610116565b80639eccacf614610235578063a168fa8914610253578063a3e56fa814610284578063a4099907146102a257610116565b806379ba5097116100e957806379ba5097146101a35780638796ba8c146101ad5780638ac00021146101dd5780638da5cb5b146101fb5780638ea981171461021957610116565b80631fe543e31461011b57806324f746971461013757806361728f39146101555780637392a77114610173575b600080fd5b61013560048036038101906101309190611299565b610377565b005b61013f61043d565b60405161014c9190611318565b60405180910390f35b61015d610453565b60405161016a919061134c565b60405180910390f35b61018d6004803603810190610188919061139f565b610459565b60405161019a91906113db565b60405180910390f35b6101ab6106e4565b005b6101c760048036038101906101c291906113f6565b610879565b6040516101d491906113db565b60405180910390f35b6101e561089d565b6040516101f291906113db565b60405180910390f35b6102036108a3565b6040516102109190611464565b60405180910390f35b610233600480360381019061022e91906114ab565b6108cc565b005b61023d610aad565b60405161024a9190611537565b60405180910390f35b61026d600480360381019061026891906113f6565b610ad3565b60405161027b929190611561565b60405180910390f35b61028c610b11565b6040516102999190611464565b60405180910390f35b6102bc60048036038101906102b7919061158a565b610b37565b005b6102c6610c30565b6040516102d391906115e7565b60405180910390f35b6102f660048036038101906102f191906113f6565b610c44565b60405161030391906113db565b60405180910390f35b610326600480360381019061032191906113f6565b610c5c565b6040516103349291906116c0565b60405180910390f35b610357600480360381019061035291906114ab565b610d87565b005b610361610d9b565b60405161036e91906113db565b60405180910390f35b600260009054906101000a900473ffffffffffffffffffffffffffffffffffffffff1673ffffffffffffffffffffffffffffffffffffffff163373ffffffffffffffffffffffffffffffffffffffff161461042d5733600260009054906101000a900473ffffffffffffffffffffffffffffffffffffffff166040517f1cf993f40000000000000000000000000000000000000000000000000000000081526004016104249291906116f0565b60405180910390fd5b610438838383610da1565b505050565b600960149054906101000a900463ffffffff1681565b60085481565b6000600260009054906101000a900473ffffffffffffffffffffffffffffffffffffffff1673ffffffffffffffffffffffffffffffffffffffff16639b1c385e6040518060c0016040528060085481526020016005548152602001600960189054906101000a900461ffff1661ffff168152602001600960149054906101000a900463ffffffff1663ffffffff1681526020016009601a9054906101000a900463ffffffff1663ffffffff1681526020016105236040518060200160405280881515815250610ee9565b8152506040518263ffffffff1660e01b8152600401610542919061185f565b6020604051808303816000875af1158015610561573d6000803e3d6000fd5b505050506040513d601f19601f820116820180604052508101906105859190611896565b90506040518060600160405280600015158152602001600115158152602001600067ffffffffffffffff8111156105bf576105be6118c3565b5b6040519080825280602002602001820160405280156105ed5781602001602082028036833780820191505090505b508152506003600083815260200190815260200160002060008201518160000160006101000a81548160ff02191690831515021790555060208201518160000160016101000a81548160ff021916908315150217905550604082015181600101908051906020019061066092919061113d565b509050506006819080600181540180825580915050600190039060005260206000200160009091909190915055806007819055507fcc58b13ad3eab50626c6a6300b1d139cd6ebb1688a7cced9461c2f7e762665ee816009601a9054906101000a900463ffffffff166040516106d79291906118f2565b60405180910390a1919050565b600160009054906101000a900473ffffffffffffffffffffffffffffffffffffffff1673ffffffffffffffffffffffffffffffffffffffff163373ffffffffffffffffffffffffffffffffffffffff1614610774576040517f08c379a000000000000000000000000000000000000000000000000000000000815260040161076b90611978565b60405180910390fd5b60008060009054906101000a900473ffffffffffffffffffffffffffffffffffffffff169050336000806101000a81548173ffffffffffffffffffffffffffffffffffffffff021916908373ffffffffffffffffffffffffffffffffffffffff1602179055506000600160006101000a81548173ffffffffffffffffffffffffffffffffffffffff021916908373ffffffffffffffffffffffffffffffffffffffff1602179055503373ffffffffffffffffffffffffffffffffffffffff168173ffffffffffffffffffffffffffffffffffffffff167f8be0079c531659141344cd1fd0a4f28419497f9722a3daafe3b4186f6b6457e060405160405180910390a350565b6006818154811061088957600080fd5b906000526020600020016000915090505481565b60055481565b60008060009054906101000a900473ffffffffffffffffffffffffffffffffffffffff16905090565b6108d46108a3565b73ffffffffffffffffffffffffffffffffffffffff163373ffffffffffffffffffffffffffffffffffffffff161415801561095d5750600260009054906101000a900473ffffffffffffffffffffffffffffffffffffffff1673ffffffffffffffffffffffffffffffffffffffff163373ffffffffffffffffffffffffffffffffffffffff1614155b156109cc573361096b6108a3565b600260009054906101000a900473ffffffffffffffffffffffffffffffffffffffff166040517f061db9c10000000000000000000000000000000000000000000000000000000081526004016109c393929190611998565b60405180910390fd5b600073ffffffffffffffffffffffffffffffffffffffff168173ffffffffffffffffffffffffffffffffffffffff1603610a32576040517fd92e233d00000000000000000000000000000000000000000000000000000000815260040160405180910390fd5b80600260006101000a81548173ffffffffffffffffffffffffffffffffffffffff021916908373ffffffffffffffffffffffffffffffffffffffff1602179055507fd1a6a14209a385a964d036e404cb5cfb71f4000cdb03c9366292430787261be681604051610aa29190611464565b60405180910390a150565b600260009054906101000a900473ffffffffffffffffffffffffffffffffffffffff1681565b60036020528060005260406000206000915090508060000160009054906101000a900460ff16908060000160019054906101000a900460ff16905082565b600960009054906101000a900473ffffffffffffffffffffffffffffffffffffffff1681565b6040518060600160405280600115158152602001600115158152602001600167ffffffffffffffff811115610b6f57610b6e6118c3565b5b604051908082528060200260200182016040528015610b9d5781602001602082028036833780820191505090505b508152506003600084815260200190815260200160002060008201518160000160006101000a81548160ff02191690831515021790555060208201518160000160016101000a81548160ff0219169083151502179055506040820151816001019080519060200190610c1092919061113d565b509050508060046000848152602001908152602001600020819055505050565b600960189054906101000a900461ffff1681565b60046020528060005260406000206000915090505481565b600060606003600084815260200190815260200160002060000160019054906101000a900460ff16610cc3576040517f08c379a0000000000000000000000000000000000000000000000000000000008152600401610cba90611a1b565b60405180910390fd5b6000600360008581526020019081526020016000206040518060600160405290816000820160009054906101000a900460ff161515151581526020016000820160019054906101000a900460ff1615151515815260200160018201805480602002602001604051908101604052809291908181526020018280548015610d6857602002820191906000526020600020905b815481526020019060010190808311610d54575b5050505050815250509050806000015181604001519250925050915091565b610d8f610f81565b610d9881611011565b50565b60075481565b6003600084815260200190815260200160002060000160019054906101000a900460ff16610e04576040517f08c379a0000000000000000000000000000000000000000000000000000000008152600401610dfb90611a1b565b60405180910390fd5b60006001600384846000818110610e1e57610e1d611a3b565b5b90506020020135610e2f9190611a99565b610e399190611af9565b905060016003600086815260200190815260200160002060000160006101000a81548160ff0219169083151502179055508282600360008781526020019081526020016000206001019190610e8f92919061118a565b508060046000868152602001908152602001600020819055507ffe2e2d779dba245964d4e3ef9b994be63856fd568bf7d3ca9e224755cb1bd54d848484604051610edb93929190611b97565b60405180910390a150505050565b60607f92fd13387c7fe7befbc38d303d6468778fb9731bc4583f17d92989c6fcfdeaaa82604051602401610f1d9190611bf4565b604051602081830303815290604052907bffffffffffffffffffffffffffffffffffffffffffffffffffffffff19166020820180517bffffffffffffffffffffffffffffffffffffffffffffffffffffffff83818316178352505050509050919050565b60008054906101000a900473ffffffffffffffffffffffffffffffffffffffff1673ffffffffffffffffffffffffffffffffffffffff163373ffffffffffffffffffffffffffffffffffffffff161461100f576040517f08c379a000000000000000000000000000000000000000000000000000000000815260040161100690611c5b565b60405180910390fd5b565b3373ffffffffffffffffffffffffffffffffffffffff168173ffffffffffffffffffffffffffffffffffffffff160361107f576040517f08c379a000000000000000000000000000000000000000000000000000000000815260040161107690611cc7565b60405180910390fd5b80600160006101000a81548173ffffffffffffffffffffffffffffffffffffffff021916908373ffffffffffffffffffffffffffffffffffffffff1602179055508073ffffffffffffffffffffffffffffffffffffffff1660008054906101000a900473ffffffffffffffffffffffffffffffffffffffff1673ffffffffffffffffffffffffffffffffffffffff167fed8889f560326eb138920d842192f0eb3dd22b4f139c87a2c57538e05bae127860405160405180910390a350565b828054828255906000526020600020908101928215611179579160200282015b8281111561117857825182559160200191906001019061115d565b5b50905061118691906111d7565b5090565b8280548282559060005260206000209081019282156111c6579160200282015b828111156111c55782358255916020019190600101906111aa565b5b5090506111d391906111d7565b5090565b5b808211156111f05760008160009055506001016111d8565b5090565b600080fd5b600080fd5b6000819050919050565b611211816111fe565b811461121c57600080fd5b50565b60008135905061122e81611208565b92915050565b600080fd5b600080fd5b600080fd5b60008083601f84011261125957611258611234565b5b8235905067ffffffffffffffff81111561127657611275611239565b5b6020830191508360208202830111156112925761129161123e565b5b9250929050565b6000806000604084860312156112b2576112b16111f4565b5b60006112c08682870161121f565b935050602084013567ffffffffffffffff8111156112e1576112e06111f9565b5b6112ed86828701611243565b92509250509250925092565b600063ffffffff82169050919050565b611312816112f9565b82525050565b600060208201905061132d6000830184611309565b92915050565b6000819050919050565b61134681611333565b82525050565b6000602082019050611361600083018461133d565b92915050565b60008115159050919050565b61137c81611367565b811461138757600080fd5b50565b60008135905061139981611373565b92915050565b6000602082840312156113b5576113b46111f4565b5b60006113c38482850161138a565b91505092915050565b6113d5816111fe565b82525050565b60006020820190506113f060008301846113cc565b92915050565b60006020828403121561140c5761140b6111f4565b5b600061141a8482850161121f565b91505092915050565b600073ffffffffffffffffffffffffffffffffffffffff82169050919050565b600061144e82611423565b9050919050565b61145e81611443565b82525050565b60006020820190506114796000830184611455565b92915050565b61148881611443565b811461149357600080fd5b50565b6000813590506114a58161147f565b92915050565b6000602082840312156114c1576114c06111f4565b5b60006114cf84828501611496565b91505092915050565b6000819050919050565b60006114fd6114f86114f384611423565b6114d8565b611423565b9050919050565b600061150f826114e2565b9050919050565b600061152182611504565b9050919050565b61153181611516565b82525050565b600060208201905061154c6000830184611528565b92915050565b61155b81611367565b82525050565b60006040820190506115766000830185611552565b6115836020830184611552565b9392505050565b600080604083850312156115a1576115a06111f4565b5b60006115af8582860161121f565b92505060206115c08582860161121f565b9150509250929050565b600061ffff82169050919050565b6115e1816115ca565b82525050565b60006020820190506115fc60008301846115d8565b92915050565b600081519050919050565b600082825260208201905092915050565b6000819050602082019050919050565b611637816111fe565b82525050565b6000611649838361162e565b60208301905092915050565b6000602082019050919050565b600061166d82611602565b611677818561160d565b93506116828361161e565b8060005b838110156116b357815161169a888261163d565b97506116a583611655565b925050600181019050611686565b5085935050505092915050565b60006040820190506116d56000830185611552565b81810360208301526116e78184611662565b90509392505050565b60006040820190506117056000830185611455565b6117126020830184611455565b9392505050565b61172281611333565b82525050565b611731816115ca565b82525050565b611740816112f9565b82525050565b600081519050919050565b600082825260208201905092915050565b60005b83811015611780578082015181840152602081019050611765565b60008484015250505050565b6000601f19601f8301169050919050565b60006117a882611746565b6117b28185611751565b93506117c2818560208601611762565b6117cb8161178c565b840191505092915050565b600060c0830160008301516117ee6000860182611719565b506020830151611801602086018261162e565b5060408301516118146040860182611728565b5060608301516118276060860182611737565b50608083015161183a6080860182611737565b5060a083015184820360a0860152611852828261179d565b9150508091505092915050565b6000602082019050818103600083015261187981846117d6565b905092915050565b60008151905061189081611208565b92915050565b6000602082840312156118ac576118ab6111f4565b5b60006118ba84828501611881565b91505092915050565b7f4e487b7100000000000000000000000000000000000000000000000000000000600052604160045260246000fd5b600060408201905061190760008301856113cc565b6119146020830184611309565b9392505050565b600082825260208201905092915050565b7f4d7573742062652070726f706f736564206f776e657200000000000000000000600082015250565b600061196260168361191b565b915061196d8261192c565b602082019050919050565b6000602082019050818103600083015261199181611955565b9050919050565b60006060820190506119ad6000830186611455565b6119ba6020830185611455565b6119c76040830184611455565b949350505050565b7f72657175657374206e6f7420666f756e64000000000000000000000000000000600082015250565b6000611a0560118361191b565b9150611a10826119cf565b602082019050919050565b60006020820190508181036000830152611a34816119f8565b9050919050565b7f4e487b7100000000000000000000000000000000000000000000000000000000600052603260045260246000fd5b7f4e487b7100000000000000000000000000000000000000000000000000000000600052601260045260246000fd5b6000611aa4826111fe565b9150611aaf836111fe565b925082611abf57611abe611a6a565b5b828206905092915050565b7f4e487b7100000000000000000000000000000000000000000000000000000000600052601160045260246000fd5b6000611b04826111fe565b9150611b0f836111fe565b9250828201905080821115611b2757611b26611aca565b5b92915050565b600080fd5b82818337505050565b6000611b47838561160d565b93507f07ffffffffffffffffffffffffffffffffffffffffffffffffffffffffffffff831115611b7a57611b79611b2d565b5b602083029250611b8b838584611b32565b82840190509392505050565b6000604082019050611bac60008301866113cc565b8181036020830152611bbf818486611b3b565b9050949350505050565b611bd281611367565b82525050565b602082016000820151611bee6000850182611bc9565b50505050565b6000602082019050611c096000830184611bd8565b92915050565b7f4f6e6c792063616c6c61626c65206279206f776e657200000000000000000000600082015250565b6000611c4560168361191b565b9150611c5082611c0f565b602082019050919050565b60006020820190508181036000830152611c7481611c38565b9050919050565b7f43616e6e6f74207472616e7366657220746f2073656c66000000000000000000600082015250565b6000611cb160178361191b565b9150611cbc82611c7b565b602082019050919050565b60006020820190508181036000830152611ce081611ca4565b905091905056fea264697066735822122079995a6ee6a49620ac2ed65fbe2e1826e3064108f4c7fe88aa1aeb960235d38f64736f6c634300081c0033",
    "linkReferences": {},
    "deployedLinkReferences": {}
}