{
    "_format": "hh-sol-artifact-1",
    "contractName": "VibeGame",
    "sourceName": "contracts/VibeGame.sol",
    "abi": [
        {
            "inputs": [
                {
                    "internalType": "address",
                    "name": "_rizz",
                    "type": "address"
                },
                {
                    "internalType": "address",
                    "name": "_multiplier",
                    "type": "address"
                }
            ],
            "stateMutability": "nonpayable",
            "type": "constructor"
        },
        {
            "anonymous": false,
            "inputs": [
                {
                    "indexed": true,
                    "internalType": "address",
                    "name": "player",
                    "type": "address"
                },
                {
                    "indexed": false,
                    "internalType": "uint256",
                    "name": "amount",
                    "type": "uint256"
                }
            ],
            "name": "Claimed",
            "type": "event"
        },
        {
            "anonymous": false,
            "inputs": [
                {
                    "indexed": true,
                    "internalType": "address",
                    "name": "player",
                    "type": "address"
                },
                {
                    "indexed": false,
                    "internalType": "uint256",
                    "name": "amount",
                    "type": "uint256"
                }
            ],
            "name": "Forfeited",
            "type": "event"
        },
        {
            "anonymous": false,
            "inputs": [
                {
                    "indexed": true,
                    "internalType": "address",
                    "name": "player",
                    "type": "address"
                },
                {
                    "indexed": false,
                    "internalType": "uint256",
                    "name": "totalReward",
                    "type": "uint256"
                }
            ],
            "name": "GameFinished",
            "type": "event"
        },
        {
            "anonymous": false,
            "inputs": [
                {
                    "indexed": true,
                    "internalType": "address",
                    "name": "player",
                    "type": "address"
                },
                {
                    "indexed": false,
                    "internalType": "uint256",
                    "name": "amount",
                    "type": "uint256"
                }
            ],
            "name": "GameStarted",
            "type": "event"
        },
        {
            "anonymous": false,
            "inputs": [
                {
                    "indexed": true,
                    "internalType": "address",
                    "name": "player",
                    "type": "address"
                },
                {
                    "indexed": false,
                    "internalType": "uint256",
                    "name": "question",
                    "type": "uint256"
                },
                {
                    "indexed": false,
                    "internalType": "bool",
                    "name": "correct",
                    "type": "bool"
                },
                {
                    "indexed": false,
                    "internalType": "uint256",
                    "name": "multiplier",
                    "type": "uint256"
                },
                {
                    "indexed": false,
                    "internalType": "uint256",
                    "name": "reward",
                    "type": "uint256"
                }
            ],
            "name": "QuestionAnswered",
            "type": "event"
        },
        {
            "inputs": [
                {
                    "internalType": "bool",
                    "name": "correct",
                    "type": "bool"
                },
                {
                    "internalType": "uint256",
                    "name": "requestId",
                    "type": "uint256"
                }
            ],
            "name": "answerQuestion",
            "outputs": [],
            "stateMutability": "nonpayable",
            "type": "function"
        },
        {
            "inputs": [],
            "name": "claim",
            "outputs": [],
            "stateMutability": "nonpayable",
            "type": "function"
        },
        {
            "inputs": [],
            "name": "finishGame",
            "outputs": [],
            "stateMutability": "nonpayable",
            "type": "function"
        },
        {
            "inputs": [
                {
                    "internalType": "address",
                    "name": "",
                    "type": "address"
                }
            ],
            "name": "games",
            "outputs": [
                {
                    "internalType": "uint256",
                    "name": "stakedAmount",
                    "type": "uint256"
                },
                {
                    "internalType": "uint256",
                    "name": "totalReward",
                    "type": "uint256"
                },
                {
                    "internalType": "uint256",
                    "name": "currentQuestion",
                    "type": "uint256"
                },
                {
                    "internalType": "bool",
                    "name": "finished",
                    "type": "bool"
                },
                {
                    "internalType": "bool",
                    "name": "claimed",
                    "type": "bool"
                },
                {
                    "internalType": "bool",
                    "name": "forfeited",
                    "type": "bool"
                }
            ],
            "stateMutability": "view",
            "type": "function"
        },
        {
            "inputs": [],
            "name": "multiplierContract",
            "outputs": [
                {
                    "internalType": "contract RollingMultiplier",
                    "name": "",
                    "type": "address"
                }
            ],
            "stateMutability": "view",
            "type": "function"
        },
        {
            "inputs": [],
            "name": "owner",
            "outputs": [
                {
                    "internalType": "address",
                    "name": "",
                    "type": "address"
                }
            ],
            "stateMutability": "view",
            "type": "function"
        },
        {
            "inputs": [],
            "name": "rizz",
            "outputs": [
                {
                    "internalType": "contract RizzToken",
                    "name": "",
                    "type": "address"
                }
            ],
            "stateMutability": "view",
            "type": "function"
        },
        {
            "inputs": [
                {
                    "internalType": "uint256",
                    "name": "amount",
                    "type": "uint256"
                }
            ],
            "name": "startGame",
            "outputs": [],
            "stateMutability": "nonpayable",
            "type": "function"
        },
        {
            "inputs": [
                {
                    "internalType": "address",
                    "name": "to",
                    "type": "address"
                }
            ],
            "name": "withdrawForfeited",
            "outputs": [],
            "stateMutability": "nonpayable",
            "type": "function"
        }
    ],
    "bytecode": "0x608060405234801561001057600080fd5b50604051611e25380380611e258339818101604052810190610032919061015e565b816000806101000a81548173ffffffffffffffffffffffffffffffffffffffff021916908373ffffffffffffffffffffffffffffffffffffffff16021790555080600160006101000a81548173ffffffffffffffffffffffffffffffffffffffff021916908373ffffffffffffffffffffffffffffffffffffffff16021790555033600260006101000a81548173ffffffffffffffffffffffffffffffffffffffff021916908373ffffffffffffffffffffffffffffffffffffffff160217905550505061019e565b600080fd5b600073ffffffffffffffffffffffffffffffffffffffff82169050919050565b600061012b82610100565b9050919050565b61013b81610120565b811461014657600080fd5b50565b60008151905061015881610132565b92915050565b60008060408385031215610175576101746100fb565b5b600061018385828601610149565b925050602061019485828601610149565b9150509250929050565b611c78806101ad6000396000f3fe608060405234801561001057600080fd5b50600436106100935760003560e01c80638da5cb5b116100665780638da5cb5b146101115780639159cd261461012f5780639fecb69f1461014b578063b3285ee814610155578063e5ed1d591461017357610093565b806311fa42f81461009857806328beff48146100b65780634e71d92d146100d257806379131a19146100dc575b600080fd5b6100a061018f565b6040516100ad9190611075565b60405180910390f35b6100d060048036038101906100cb91906110e2565b6101b3565b005b6100da6103c3565b005b6100f660048036038101906100f191906110e2565b610650565b60405161010896959493929190611143565b60405180910390f35b6101196106b3565b60405161012691906111b3565b60405180910390f35b61014960048036038101906101449190611226565b6106d9565b005b610153610b10565b005b61015d610c32565b60405161016a9190611287565b60405180910390f35b61018d600480360381019061018891906112a2565b610c58565b005b60008054906101000a900473ffffffffffffffffffffffffffffffffffffffff1681565b600260009054906101000a900473ffffffffffffffffffffffffffffffffffffffff1673ffffffffffffffffffffffffffffffffffffffff163373ffffffffffffffffffffffffffffffffffffffff1614610243576040517f08c379a000000000000000000000000000000000000000000000000000000000815260040161023a9061132c565b60405180910390fd5b60008060009054906101000a900473ffffffffffffffffffffffffffffffffffffffff1673ffffffffffffffffffffffffffffffffffffffff166370a08231306040518263ffffffff1660e01b815260040161029f91906111b3565b602060405180830381865afa1580156102bc573d6000803e3d6000fd5b505050506040513d601f19601f820116820180604052508101906102e09190611361565b905060008054906101000a900473ffffffffffffffffffffffffffffffffffffffff1673ffffffffffffffffffffffffffffffffffffffff1663a9059cbb83836040518363ffffffff1660e01b815260040161033d92919061138e565b6020604051808303816000875af115801561035c573d6000803e3d6000fd5b505050506040513d601f19601f8201168201806040525081019061038091906113cc565b6103bf576040517f08c379a00000000000000000000000000000000000000000000000000000000081526004016103b690611445565b60405180910390fd5b5050565b6000600360003373ffffffffffffffffffffffffffffffffffffffff1673ffffffffffffffffffffffffffffffffffffffff16815260200190815260200160002090508060030160009054906101000a900460ff16610457576040517f08c379a000000000000000000000000000000000000000000000000000000000815260040161044e906114b1565b60405180910390fd5b8060030160019054906101000a900460ff16156104a9576040517f08c379a00000000000000000000000000000000000000000000000000000000081526004016104a09061151d565b60405180910390fd5b8060030160029054906101000a900460ff16156104fb576040517f08c379a00000000000000000000000000000000000000000000000000000000081526004016104f290611589565b60405180910390fd5b60008160010154905060018260030160016101000a81548160ff02191690831515021790555060008054906101000a900473ffffffffffffffffffffffffffffffffffffffff1673ffffffffffffffffffffffffffffffffffffffff1663a9059cbb33836040518363ffffffff1660e01b815260040161057c92919061138e565b6020604051808303816000875af115801561059b573d6000803e3d6000fd5b505050506040513d601f19601f820116820180604052508101906105bf91906113cc565b6105fe576040517f08c379a00000000000000000000000000000000000000000000000000000000081526004016105f5906115f5565b60405180910390fd5b3373ffffffffffffffffffffffffffffffffffffffff167fd8138f8a3f377c5259ca548e70e4c2de94f129f5a11036a15b69513cba2b426a826040516106449190611615565b60405180910390a25050565b60036020528060005260406000206000915090508060000154908060010154908060020154908060030160009054906101000a900460ff16908060030160019054906101000a900460ff16908060030160029054906101000a900460ff16905086565b600260009054906101000a900473ffffffffffffffffffffffffffffffffffffffff1681565b6000600360003373ffffffffffffffffffffffffffffffffffffffff1673ffffffffffffffffffffffffffffffffffffffff16815260200190815260200160002090508060030160009054906101000a900460ff1615801561074a57508060030160029054906101000a900460ff16155b610789576040517f08c379a00000000000000000000000000000000000000000000000000000000081526004016107809061167c565b60405180910390fd5b60008160000154116107d0576040517f08c379a00000000000000000000000000000000000000000000000000000000081526004016107c7906116e8565b60405180910390fd5b8060030160019054906101000a900460ff1615610822576040517f08c379a00000000000000000000000000000000000000000000000000000000081526004016108199061151d565b60405180910390fd5b6000600160009054906101000a900473ffffffffffffffffffffffffffffffffffffffff1673ffffffffffffffffffffffffffffffffffffffff1663d8a4676f846040518263ffffffff1660e01b815260040161087f9190611615565b600060405180830381865afa15801561089c573d6000803e3d6000fd5b505050506040513d6000823e3d601f19601f820116820180604052508101906108c59190611861565b50905080610908576040517f08c379a00000000000000000000000000000000000000000000000000000000081526004016108ff90611909565b60405180910390fd5b6000600160009054906101000a900473ffffffffffffffffffffffffffffffffffffffff1673ffffffffffffffffffffffffffffffffffffffff1663bebd8259856040518263ffffffff1660e01b81526004016109659190611615565b602060405180830381865afa158015610982573d6000803e3d6000fd5b505050506040513d601f19601f820116820180604052508101906109a69190611361565b9050600081116109eb576040517f08c379a00000000000000000000000000000000000000000000000000000000081526004016109e290611975565b60405180910390fd5b8415610a7f576000818460000154610a0391906119c4565b905080846001016000828254610a199190611a06565b925050819055503373ffffffffffffffffffffffffffffffffffffffff167f2b54ced7a6971466e2aecd92a697780903234cc03d1515fa9a41a026cc50f6d3856002015460018585604051610a719493929190611a3a565b60405180910390a250610aef565b60018360030160026101000a81548160ff0219169083151502179055503373ffffffffffffffffffffffffffffffffffffffff167f5b1c616c572bf4d007644e7a85cb76c1ad8ad649c2587712bc80495fe76343a68460000154604051610ae69190611615565b60405180910390a25b826002016000815480929190610b0490611a7f565b91905055505050505050565b6000600360003373ffffffffffffffffffffffffffffffffffffffff1673ffffffffffffffffffffffffffffffffffffffff16815260200190815260200160002090508060030160009054906101000a900460ff16158015610b8157508060030160029054906101000a900460ff16155b610bc0576040517f08c379a0000000000000000000000000000000000000000000000000000000008152600401610bb79061167c565b60405180910390fd5b60018160030160006101000a81548160ff0219169083151502179055503373ffffffffffffffffffffffffffffffffffffffff167f27223f8d1d659564536abdf661d810b8a16ca4f6c69034f2a73b74b0853d98298260010154604051610c279190611615565b60405180910390a250565b600160009054906101000a900473ffffffffffffffffffffffffffffffffffffffff1681565b6000600360003373ffffffffffffffffffffffffffffffffffffffff1673ffffffffffffffffffffffffffffffffffffffff168152602001908152602001600020600001541480610cf55750600360003373ffffffffffffffffffffffffffffffffffffffff1673ffffffffffffffffffffffffffffffffffffffff16815260200190815260200160002060030160009054906101000a900460ff165b80610d4c5750600360003373ffffffffffffffffffffffffffffffffffffffff1673ffffffffffffffffffffffffffffffffffffffff16815260200190815260200160002060030160029054906101000a900460ff165b610d8b576040517f08c379a0000000000000000000000000000000000000000000000000000000008152600401610d8290611b13565b60405180910390fd5b60008111610dce576040517f08c379a0000000000000000000000000000000000000000000000000000000008152600401610dc590611b7f565b60405180910390fd5b60008054906101000a900473ffffffffffffffffffffffffffffffffffffffff1673ffffffffffffffffffffffffffffffffffffffff166323b872dd3330846040518463ffffffff1660e01b8152600401610e2b93929190611b9f565b6020604051808303816000875af1158015610e4a573d6000803e3d6000fd5b505050506040513d601f19601f82011682018060405250810190610e6e91906113cc565b610ead576040517f08c379a0000000000000000000000000000000000000000000000000000000008152600401610ea490611c22565b60405180910390fd5b6040518060c00160405280828152602001600081526020016000815260200160001515815260200160001515815260200160001515815250600360003373ffffffffffffffffffffffffffffffffffffffff1673ffffffffffffffffffffffffffffffffffffffff16815260200190815260200160002060008201518160000155602082015181600101556040820151816002015560608201518160030160006101000a81548160ff02191690831515021790555060808201518160030160016101000a81548160ff02191690831515021790555060a08201518160030160026101000a81548160ff0219169083151502179055509050503373ffffffffffffffffffffffffffffffffffffffff167fea32a03505fd9f04d664676d72295a86c5fb0465e69654751907ca305bc1d1c782604051610feb9190611615565b60405180910390a250565b600073ffffffffffffffffffffffffffffffffffffffff82169050919050565b6000819050919050565b600061103b61103661103184610ff6565b611016565b610ff6565b9050919050565b600061104d82611020565b9050919050565b600061105f82611042565b9050919050565b61106f81611054565b82525050565b600060208201905061108a6000830184611066565b92915050565b6000604051905090565b600080fd5b600080fd5b60006110af82610ff6565b9050919050565b6110bf816110a4565b81146110ca57600080fd5b50565b6000813590506110dc816110b6565b92915050565b6000602082840312156110f8576110f761109a565b5b6000611106848285016110cd565b91505092915050565b6000819050919050565b6111228161110f565b82525050565b60008115159050919050565b61113d81611128565b82525050565b600060c0820190506111586000830189611119565b6111656020830188611119565b6111726040830187611119565b61117f6060830186611134565b61118c6080830185611134565b61119960a0830184611134565b979650505050505050565b6111ad816110a4565b82525050565b60006020820190506111c860008301846111a4565b92915050565b6111d781611128565b81146111e257600080fd5b50565b6000813590506111f4816111ce565b92915050565b6112038161110f565b811461120e57600080fd5b50565b600081359050611220816111fa565b92915050565b6000806040838503121561123d5761123c61109a565b5b600061124b858286016111e5565b925050602061125c85828601611211565b9150509250929050565b600061127182611042565b9050919050565b61128181611266565b82525050565b600060208201905061129c6000830184611278565b92915050565b6000602082840312156112b8576112b761109a565b5b60006112c684828501611211565b91505092915050565b600082825260208201905092915050565b7f4e6f74206f776e65720000000000000000000000000000000000000000000000600082015250565b60006113166009836112cf565b9150611321826112e0565b602082019050919050565b6000602082019050818103600083015261134581611309565b9050919050565b60008151905061135b816111fa565b92915050565b6000602082840312156113775761137661109a565b5b60006113858482850161134c565b91505092915050565b60006040820190506113a360008301856111a4565b6113b06020830184611119565b9392505050565b6000815190506113c6816111ce565b92915050565b6000602082840312156113e2576113e161109a565b5b60006113f0848285016113b7565b91505092915050565b7f5769746864726177206661696c65640000000000000000000000000000000000600082015250565b600061142f600f836112cf565b915061143a826113f9565b602082019050919050565b6000602082019050818103600083015261145e81611422565b9050919050565b7f4e6f742066696e69736865640000000000000000000000000000000000000000600082015250565b600061149b600c836112cf565b91506114a682611465565b602082019050919050565b600060208201905081810360008301526114ca8161148e565b9050919050565b7f416c726561647920636c61696d65640000000000000000000000000000000000600082015250565b6000611507600f836112cf565b9150611512826114d1565b602082019050919050565b60006020820190508181036000830152611536816114fa565b9050919050565b7f466f726665697465640000000000000000000000000000000000000000000000600082015250565b60006115736009836112cf565b915061157e8261153d565b602082019050919050565b600060208201905081810360008301526115a281611566565b9050919050565b7f436c61696d206661696c65640000000000000000000000000000000000000000600082015250565b60006115df600c836112cf565b91506115ea826115a9565b602082019050919050565b6000602082019050818103600083015261160e816115d2565b9050919050565b600060208201905061162a6000830184611119565b92915050565b7f47616d6520656e64656400000000000000000000000000000000000000000000600082015250565b6000611666600a836112cf565b915061167182611630565b602082019050919050565b6000602082019050818103600083015261169581611659565b9050919050565b7f4e6f207374616b65000000000000000000000000000000000000000000000000600082015250565b60006116d26008836112cf565b91506116dd8261169c565b602082019050919050565b60006020820190508181036000830152611701816116c5565b9050919050565b600080fd5b6000601f19601f8301169050919050565b7f4e487b7100000000000000000000000000000000000000000000000000000000600052604160045260246000fd5b6117568261170d565b810181811067ffffffffffffffff821117156117755761177461171e565b5b80604052505050565b6000611788611090565b9050611794828261174d565b919050565b600067ffffffffffffffff8211156117b4576117b361171e565b5b602082029050602081019050919050565b600080fd5b60006117dd6117d884611799565b61177e565b90508083825260208201905060208402830185811115611800576117ff6117c5565b5b835b818110156118295780611815888261134c565b845260208401935050602081019050611802565b5050509392505050565b600082601f83011261184857611847611708565b5b81516118588482602086016117ca565b91505092915050565b600080604083850312156118785761187761109a565b5b6000611886858286016113b7565b925050602083015167ffffffffffffffff8111156118a7576118a661109f565b5b6118b385828601611833565b9150509250929050565b7f52616e646f6d206e6f7420726561647900000000000000000000000000000000600082015250565b60006118f36010836112cf565b91506118fe826118bd565b602082019050919050565b60006020820190508181036000830152611922816118e6565b9050919050565b7f496e76616c6964206d756c7469706c6965720000000000000000000000000000600082015250565b600061195f6012836112cf565b915061196a82611929565b602082019050919050565b6000602082019050818103600083015261198e81611952565b9050919050565b7f4e487b7100000000000000000000000000000000000000000000000000000000600052601160045260246000fd5b60006119cf8261110f565b91506119da8361110f565b92508282026119e88161110f565b915082820484148315176119ff576119fe611995565b5b5092915050565b6000611a118261110f565b9150611a1c8361110f565b9250828201905080821115611a3457611a33611995565b5b92915050565b6000608082019050611a4f6000830187611119565b611a5c6020830186611134565b611a696040830185611119565b611a766060830184611119565b95945050505050565b6000611a8a8261110f565b91507fffffffffffffffffffffffffffffffffffffffffffffffffffffffffffffffff8203611abc57611abb611995565b5b600182019050919050565b7f47616d6520696e2070726f677265737300000000000000000000000000000000600082015250565b6000611afd6010836112cf565b9150611b0882611ac7565b602082019050919050565b60006020820190508181036000830152611b2c81611af0565b9050919050565b7f5374616b65203e20300000000000000000000000000000000000000000000000600082015250565b6000611b696009836112cf565b9150611b7482611b33565b602082019050919050565b60006020820190508181036000830152611b9881611b5c565b9050919050565b6000606082019050611bb460008301866111a4565b611bc160208301856111a4565b611bce6040830184611119565b949350505050565b7f5374616b65206661696c65640000000000000000000000000000000000000000600082015250565b6000611c0c600c836112cf565b9150611c1782611bd6565b602082019050919050565b60006020820190508181036000830152611c3b81611bff565b905091905056fea2646970667358221220a3e8ce2b82d62cd0bbccc26a5f2ba6b5c98e3421a6d767365fc99af0a5a709f664736f6c634300081c0033",
    "linkReferences": {},
    "deployedLinkReferences": {}
}